:100000000C942A000C9447000C9447000C94470071
:100010000C9447000C9447000C9447000C94470044
:100020000C9447000C9447000C9447000C94470034
:100030000C9447000C9447000C9447000C94470024
:100040000C9447000C9447000C9447000C94470014
:100050000C94470011241FBECFE5D8E0DEBFCDBF12
:1000600010E0A0E6B0E0E0E5F1E102C005900D92FD
:10007000AA3EB107D9F710E0AAEEB0E001C01D9288
:10008000A23FB107E1F70E9411050C94A6080C9459
:100090000000843409F454C0853448F4823499F162
:1000A000833408F06AC0813409F083C00FC08236FF
:1000B00051F1833620F4813609F07BC007C08336C6
:1000C00009F45BC0843609F074C03AC0413069F469
:1000D0002AB381E090E0AC0102C0440F551F6A953D
:1000E000E2F7BA01622B6ABB08952AB381E090E07F
:1000F000AC0102C0440F551F6A95E2F7BA01609542
:1001000062236ABB0895413069F427B381E090E02F
:10011000AC0102C0440F551F6A95E2F7BA01622B89
:1001200067BB089527B381E090E0AC0102C0440FA3
:10013000551F6A95E2F7BA016095622367BB08957F
:10014000413069F421B381E090E0AC0102C0440F7A
:10015000551F6A95E2F7BA01622B61BB089521B37E
:1001600081E090E0AC0102C0440F551F6A95E2F7B0
:10017000BA016095622361BB0895413069F424B3EC
:1001800081E090E0AC0102C0440F551F6A95E2F790
:10019000BA01622B64BB089524B381E090E0AC0106
:1001A00002C0440F551F6A95E2F7BA0160956223B9
:1001B00064BB0895843409F454C0853448F482340F
:1001C00099F1833408F06AC0813409F083C00FC00C
:1001D000823651F1833620F4813609F07BC007C0A6
:1001E000833609F45BC0843609F074C03AC04130EC
:1001F00069F42BB381E090E0AC0102C0440F551FBD
:100200006A95E2F7BA01622B6BBB08952BB381E0CC
:1002100090E0AC0102C0440F551F6A95E2F7BA01A5
:10022000609562236BBB0895413069F428B381E087
:1002300090E0AC0102C0440F551F6A95E2F7BA0185
:10024000622B68BB089528B381E090E0AC0102C046
:10025000440F551F6A95E2F7BA016095622368BBA7
:100260000895413069F422B381E090E0AC0102C00E
:10027000440F551F6A95E2F7BA01622B62BB0895DD
:1002800022B381E090E0AC0102C0440F551F6A9593
:10029000E2F7BA016095622362BB0895413069F4C8
:1002A00025B381E090E0AC0102C0440F551F6A9570
:1002B000E2F7BA01622B65BB089525B381E090E0B7
:1002C000AC0102C0440F551F6A95E2F7BA01609570
:1002D000622365BB0895843481F1853440F482340F
:1002E000F9F08334B8F5813409F040C00CC082368F
:1002F000B9F0833618F48136C9F505C0833651F15B
:100300008436A1F51AC02BB381E090E0AC0102C0A5
:10031000440F551F6A95E2F7BA0162276BBB089537
:1003200028B381E090E0AC0102C0440F551F6A95EC
:10033000E2F7BA01622768BB089522B381E090E03A
:10034000AC0102C0440F551F6A95E2F7BA0162275B
:1003500062BB089525B381E090E0AC0102C0440F78
:10036000551F6A95E2F7BA01622765BB0895843488
:1003700009F451C0853440F4823439F18334C0F536
:10038000813409F05AC00EC08236F9F0833620F469
:10039000813609F052C006C0833651F1843609F027
:1003A0004CC039C029B381E090E0062E02C0880F0E
:1003B000991F0A94E2F730E08223932302C09695B6
:1003C00087956A95E2F7982F38C026B381E090E0D0
:1003D000062E02C0880F991F0A94E2F730E08223AC
:1003E000932302C0969587956A95E2F7982F25C0CA
:1003F00023B381E090E0062E02C0880F991F0A9473
:10040000E2F730E08223932302C0969587956A95A0
:10041000E2F7982F12C020B381E090E0062E02C0D0
:10042000880F991F0A94E2F730E08223932302C0D9
:10043000969587956A95E2F7982F892F08958434C9
:10044000C9F0853438F4823499F08334A8F48134C7
:10045000A1F40CC0823661F0833618F4813669F459
:1004600005C0833649F0843641F404C06ABB089560
:1004700067BB089561BB089564BB08958434C9F0D7
:10048000853438F4823499F08334A8F48134A1F4AB
:100490000CC0823661F0833618F4813669F405C0E9
:1004A000833649F0843641F404C06BBB089568BBC1
:1004B000089562BB089565BB08958434D1F08534F6
:1004C00038F4823499F08334B8F48134B9F40CC030
:1004D000823661F0833618F4813681F405C08336A4
:1004E00059F0843659F405C099B308C086B388BB67
:1004F00005C080B382BB02C083B385BB892F08953A
:100500008434E9F0853438F48234A9F08334D8F4A3
:100510008134E1F40CC0823671F0833618F48136F0
:10052000A9F405C0833679F0843681F408C08BB312
:1005300080958BBB089588B3809588BB089582B35E
:10054000809582BB089585B3809585BB08958234DC
:1005500051F1833420F4813409F07BC007C0833427
:1005600009F43EC0843409F074C057C0413069F4C6
:100570002BB381E090E0AC0102C0440F551F6A9597
:10058000E2F7BA01622B6BBB08952BB381E090E0D8
:10059000AC0102C0440F551F6A95E2F7BA0160959D
:1005A00062236BBB0895413069F428B381E090E089
:1005B000AC0102C0440F551F6A95E2F7BA01622BE5
:1005C00068BB089528B381E090E0AC0102C0440FFD
:1005D000551F6A95E2F7BA016095622368BB0895DA
:1005E000413069F425B381E090E0AC0102C0440FD2
:1005F000551F6A95E2F7BA01622B65BB089525B3D2
:1006000081E090E0AC0102C0440F551F6A95E2F70B
:10061000BA016095622365BB0895413069F422B345
:1006200081E090E0AC0102C0440F551F6A95E2F7EB
:10063000BA01622B62BB089522B381E090E0AC0165
:1006400002C0440F551F6A95E2F7BA016095622314
:1006500062BB08956F70823489F0833418F481345A
:1006600009F505C0833489F08434E1F415C08BB3F7
:10067000807F8BBB8BB3682B6BBB089588B3807F67
:1006800088BB88B3682B68BB089585B3807F85BB22
:1006900085B3682B65BB089582B3807F82BB82B32C
:1006A000682B62BB08956295607F823489F0833441
:1006B00018F4813409F505C0833489F08434E1F4F9
:1006C00015C08BB38F708BBB8BB3682B6BBB08953E
:1006D00088B38F7088BB88B3682B68BB089585B3D7
:1006E0008F7085BB85B3682B65BB089582B38F700F
:1006F00082BB82B3682B62BB08958EBB9FBB6DBB70
:10070000E29AE19AE199FECF08958EBB9FBBE09AF1
:100710008DB3089584E460E041E00E94490084E4E0
:1007200061E041E00E94490084E462E041E00E940F
:10073000490084E463E041E00E94490081E460E014
:1007400040E00E94490081E461E040E00E944900ED
:1007500081E462E040E00E94490081E463E040E01F
:100760000E94490081E460E041E00E94A70281E428
:1007700061E041E00E94A70281E462E041E00E9462
:10078000A70281E463E041E00E94A70208950F936D
:100790001F93CF93DF93CDB7DEB760970FB6F89472
:1007A000DEBF0FBECDBFDE011196E0E6F0E080E1D6
:1007B00001900D928150E1F700E084E460E041E0B7
:1007C0000E94DA0084E461E041E00E94DA0084E4FF
:1007D00062E041E00E94DA0084E463E041E00E94CC
:1007E000DA0084E4602F40E00E94DA0010E081E447
:1007F000612F0E94B701882361F4E02FF0E0EE0F33
:10080000FF1FEE0FFF1FE10FF11DEC0FFD1F818198
:1008100004C01F5F143059F70BC060960FB6F894F0
:10082000DEBF0FBECDBFDF91CF911F910F91089515
:100830000F5F043011F68FEFF0CF82E460E041E00B
:100840000E94DA008FE99FE00197F1F700C00000F5
:1008500082E460E040E00E94DA008FE99FE00197C7
:10086000F1F700C000000895CF93C82F682F62955C
:100870006F7081E40E94530382E461E040E00E94D3
:10088000DA000E941D0481E46C2F0E94530382E46D
:1008900061E040E00E94DA000E941D048FEC97E0C6
:1008A0000197F1F700C00000CF9108958FEF91EE0E
:1008B000A4E081509040A040E1F700C0000081E436
:1008C00064E041E00E94490081E465E041E00E946B
:1008D000490081E466E041E00E94490081E467E06C
:1008E00041E00E94490082E460E041E00E9449004A
:1008F00082E462E041E00E94490082E461E041E07C
:100900000E94490082E462E040E00E94DA0082E056
:100910000E943404AFE1BEE41197F1F700C000007B
:1009200088E20E9434048FEC97E00197F1F700C051
:1009300000008CE00E943404AFECB7E01197F1F7AF
:1009400000C0000081E00E9434048FE19EE4019722
:10095000F1F700C0000086E00E943404AFECB7E07D
:100960001197F1F700C000000895CF93C82F682FAA
:1009700062956F7081E40E94530382E461E041E07C
:100980000E94DA000E941D0481E46C2F0E94530330
:1009900082E461E041E00E94DA000E941D048FECD5
:1009A00097E00197F1F700C00000CF910895CF9331
:1009B000DF93EC018881882331F021960E94B504F1
:1009C00089918823D9F7DF91CF91089581E00E9422
:1009D00034048FE19EE40197F1F700C00000089510
:1009E000282F2150223070F4613170F4662371F0A9
:1009F000813019F4962F91580AC0823041F4962F15
:100A0000915405C090E803C090E801C090E8892F98
:100A10000E9434048FEC97E00197F1F700C00000CA
:100A200008952F923F924F925F926F927F928F9292
:100A30009F92AF92BF92CF92DF92EF92FF920F936D
:100A40001F93CF93DF9300D00F92CDB7DEB70E94F4
:100A50008A030E9456048D9A8E9A80E290E00E944A
:100A600085038F3F89F580E790E00E94D7040F2E21
:100A7000F1E2EF2EFF24F02D0E94C703182F8F3FC5
:100A8000D9F30E94B5048FEF94E3ACE0815090401D
:100A9000A040E1F700C000006E2D675181E00E9488
:100AA000F0048AE20E94B504C701612F0E947D0311
:100AB0000894E11CF11C95E2E916F104E9F680E2E4
:100AC00090E060E00E947D0385E290E00E94850353
:100AD0008F3FA9F582E061E00E94F0048AE790E090
:100AE0000E94D7040F2EF6E2EF2EFF24F02D0E9475
:100AF000C703182F8F3FD9F30E94B5048FEF94E3FB
:100B0000ACE081509040A040E1F700C000006E2DA5
:100B10006C5182E00E94F0048AE20E94B504C70191
:100B2000612F0E947D030894E11CF11C9AE2E916F2
:100B3000F104E9F685E290E060E00E947D030F2E6B
:100B4000F1E3EF2EF02D0F2EFDEECF2EF0E0DF2E95
:100B5000F02D0FEF46010894810891080F2EFEEF4B
:100B60006F2EFFEF7F2EF02D6C0C7D1C0F2EFDEFF6
:100B7000AF2EFFEFBF2EF02DAC0CBD1C0F2EF4E8F6
:100B80004F2EF0E05F2EF02DFA2CB9820F2EFAEEE8
:100B90002F2EF0E03F2EF02DD6010C93F4010083B0
:100BA000D3010C93F50100830E94E604C2010E9468
:100BB000D704FA82F981FB831CE00E94C703AA8153
:100BC000BB818C938F3FC9F30E94B5048FEF94E3F0
:100BD000ACE081509040A040E1F700C0000081E00F
:100BE000612F0E94F0048AE20E94B5041F5FAA816F
:100BF000BB811196BB83AA831031F9F681E290E0A4
:100C00000E948503F1019081891709F045C082E2B5
:100C100090E00E948503ABEEB0E09C918917E1F56E
:100C200083E290E00E948503ECEEF0E0908189176A
:100C300099F584E290E00E948503D6019C91891782
:100C400059F50E94E60480E990E00E94D70482E012
:100C500061E00E94F0048FE990E00E94D704959A29
:100C6000EFECF7E03197F1F700C000009598969A05
:100C70008FEF9DE3A9E481509040A040E1F700C0D0
:100C8000000096988FEF99E6A8E181509040A0402F
:100C9000E1F700C00000DDC090E3E91661F10E94B9
:100CA000E6048BEA90E00E94D7048FEF99E6A8E172
:100CB00081509040A040E1F700C000000E94E6048F
:100CC0008AEB90E00E94D7048E2D0E94B5048FEF2E
:100CD00099E6A8E181509040A040E1F700C00000F3
:100CE0008FEF9DE3A9E481509040A040E1F700C060
:100CF0000000EA9451CF0E94E6048BEA90E00E9443
:100D0000D70482E061E00E94F00486EC90E00E944B
:100D1000D7049FC0D7010C93F5010083D4010C9335
:100D2000F60100830E94E604C3010E94D7043A82C0
:100D30002B821CE00E94C703AA81BB818C938F3F4A
:100D4000C9F30E94B5048FEF94E3ACE0815090406A
:100D5000A040E1F700C0000081E0612F0E94F00494
:100D60008AE20E94B5041F5FAA81BB811196BB83F2
:100D7000AA831031F9F681E290E00E948503F20126
:100D80009081891739F682E290E00E948503ABEEEC
:100D9000B0E09C91891709F0BDCF83E290E00E94FA
:100DA0008503ECEEF0E090818917A9F584E290E0EC
:100DB0000E948503ADEEB0E09C91891771F50E9409
:100DC000E60480E990E00E94D70482E061E00E949E
:100DD000F0048EED90E00E94D704959AEFE9FFE0D1
:100DE0003197F1F700C000009598969A8FEF9DE338
:100DF000A9E481509040A040E1F700C0000096981F
:100E00008FEF99E6A8E181509040A040E1F700C043
:100E1000000081E003C080E001C080E0882309F485
:100E200079CF80E090E00F900F900F90DF91CF91FD
:100E30001F910F91FF90EF90DF90CF90BF90AF90F8
:100E40009F908F907F906F905F904F903F902F90EA
:100E500008958FEF9DE3A9E481509040A040E1F711
:100E600000C000000F2EF1EFEF2EF0E0FF2EF02D6E
:100E70000FEF57010894A108B1080F2EFEEF8F2E37
:100E8000FFEF9F2EF02D8E0C9F1C0F2EFDEFCF2E0F
:100E9000FFEFDF2EF02DCE0CDF1C0F2EF2ED6F2EAC
:100EA000F0E07F2EF02D3C2C2D2C0F2EFAEE4F2E45
:100EB000F0E05F2EF02D2ECF83B7886083BF80E5F2
:100EC0008CBF83B7816083BF83B7846083BF78940E
:100ED00089B7826089BF0895BB9A83B7886083BF52
:100EE00080E48CBF83B7816083BF83B7846083BF96
:100EF00083B7806183BF08958D9A2FB522602FBD7F
:100F00002EB528602EBD2EB520612EBD20E030E02C
:100F10004AE754E40E941B080E94C607DC01CB018B
:100F20009BBD8ABD8FE19EE497BD86BD8EB5816075
:100F30008EBD8FB580688FBD08958D9A22E82FBD34
:100F40002AE12EBD2FE13EE437BD26BD20E030E092
:100F50004AE754E40E941B080E94C607DC01CB014B
:100F60009BBD8ABD0895BB9A83B7806483BF80E42C
:100F70008CBF83B7816083BF83B7846083BF83B72F
:100F8000806183BF83B7806283BF089533D088F0C8
:100F90009F5790F0B92F9927B751A0F0D1F0660F65
:100FA000771F881F991F1AF0BA95C9F712C0B13080
:100FB00081F03AD0B1E0089537C0672F782F8827A5
:100FC000B85F39F0B93FCCF3869577956795B395BF
:100FD000D9F73EF490958095709561957F4F8F4F2E
:100FE0009F4F089557FD9058440F551F59F05F3F8C
:100FF00071F04795880F97FB991F61F09F3F79F03B
:1010000087950895121613061406551FF2CF4695BC
:10101000F1DF08C0161617061806991FF1CF86953E
:101020007105610508940895E894BB276627772722
:10103000CB0197F908950BD078C069D028F06ED015
:1010400018F0952309F05AC05FC01124EECFCADF13
:10105000A0F3959FD1F3950F50E0551F629FF001CB
:10106000729FBB27F00DB11D639FAA27F00DB11D24
:10107000AA1F649F6627B00DA11D661F829F2227AD
:10108000B00DA11D621F739FB00DA11D621F839F34
:10109000A00D611D221F749F3327A00D611D231F0A
:1010A000849F600D211D822F762F6A2F11249F5758
:1010B00050408AF0E1F088234AF0EE0FFF1FBB1F7B
:1010C000661F771F881F91505040A9F79E3F51051A
:1010D00070F014C0AACF5F3FECF3983EDCF3869526
:1010E00077956795B795F795E7959F5FC1F7FE2BC5
:1010F000880F911D9695879597F9089597F99F67A1
:1011000080E870E060E008959FEF80EC089500248F
:101110000A941616170618060906089500240A945C
:1011200012161306140605060895092E0394000CE2
:1011300011F4882352F0BB0F40F4BF2B11F460FF71
:1011400004C06F5F7F4F8F4F9F4F0895F894FFCF7C
:101150003132332F3435362A3738392D41303D2B53
:1011600053657420506173733A00536574204C6F5B
:10117000636B3A00436865636B20506173733A0098
:1011800052696768742050617373776F726400539B
:10119000616665204F70656E65640057726F6E679B
:1011A0002050617373776F72640074726965732085
:1011B0006C6566743A005361666520436C6F7365B5
:1011C0006400436C6F736520736166653A00536118
:0A11D000666520436C6F7365000034
:00000001FF
